:0200000036299F
:10000800FF00030E8301D9000A08DA008A0170088C
:10001800A0008B1C17288B105208003A031D1628C5
:100028000130D200D30A2008F0005A088A00590E7D
:080038008300FF0E7F0E09009A
:10004000831203135208003A031D98280708003A48
:1000500003192D2887192D2863281730D700570832
:10006000003C03185D2807105708033C031C3A287E
:1000700087143B2887105708033C031841280715AD
:10008000422807118715071287125708F000F00D54
:1000900070107008223E8400000888000230FB00C7
:1000A0000430FC00BA30FD00FD0B5428FC0B542832
:1000B000FB0B54280000D7032F285208013A0319DC
:1000C0006228871198280F30D7005708003C031882
:1000D000932807148710071187115708033C031C46
:1000E00073280716742807125708033C03187A2848
:1000F00087167B2887125708F000F00D70107008E3
:10010000223E8400000888000230FB000430FC001E
:10011000BA30FD00FD0B8A28FC0B8A28FB0B8A28CD
:100120000000D70365285208003A031D98280714D9
:020130000800C5
:10013200831203135208013A031D02295308013A9C
:10014200031DD128071487100711D401871103302A
:10015200D8005808003C0318CB2801302102031CA8
:10016200B52822088800C92807165808F000F00DA3
:1001720070107008223E8400000888008230FC0063
:10018200DD30FD00FD0BC328FC0BC328000000007E
:10019200D803AA280130A100871107128716022965
:1001A2005308023A031D0229A1010710871287157D
:1001B200D3010330D8005808003C0318FD28013051
:1001C2005402031CE72822088800FB2887145808D9
:1001D200F000F00D70107008223E840000088800C4
:1001E2008230FC00DD30FD00FD0BF528FC0BF5280C
:1001F20000000000D803DC280130D40007150712E4
:040202008710080059
:0E0206008312031356088A0055088200080070
:1002140083120313861813295208013A031D132964
:100224009920861C1A295208003A031D1A292020F5
:020234000800C0
:1002360003218A110A128000840AD50A0319D60AF4
:08024600F003031D1B29080051
:10024E008316031388018701033086008312880109
:0E025E00870186018B170B1683160117080007
:0A026C00742127210A2138293A29BC
:1002E80021308400343083120313F0004030D500ED
:0802F8000130D6001B210800B3
:02028000003448
:100282000034003441340034423400344334003406
:1002920044340034453400344634003447340034A6
:1002A2004834003449340034D0340034D13400347A
:1002B200D2340034D3340034D4340034D53400344E
:1002C200D6340034D7340034D8340034D93400342E
:1002D200E0340034E1340034E2340034E3340034F6
:0202E2000034E6
:0202E4000034E4
:0202E6000034E2
:02400E004A2F37
:00000001FF
